:020000040800F2
:10000000F80500209D010008E32B0008F3290008F3
:10001000E12B0008150B0008313300080000000038
:10002000000000000000000000000000112D00088A
:10003000C90B000800000000E52B0008E12D0008B6
:10004000B7010008B7010008B7010008B7010008B0
:10005000B7010008B7010008B7010008B7010008A0
:10006000B7010008B7010008B7010008B701000890
:10007000B7010008B7010008B7010008B701000880
:10008000B7010008B7010008BD080008B701000863
:10009000B7010008B7010008B7010008B701000860
:1000A000B7010008B7010008B7010008B701000850
:1000B000B7010008892E0008B7010008B701000841
:1000C000B7010008B7010008B7010008B701000830
:1000D000B7010008A1320008B7010008B701000805
:1000E000B7010008B7010008B7010008B701000810
:1000F000B7010008B7010008B7010008B701000800
:10010000B7010008B7010008B7010008B7010008EF
:10011000B7010008B7010008B7010008B7010008DF
:10012000190B0008B7010008B7010008B701000863
:10013000B7010008B7010008B7010008B7010008BF
:10014000B7010008B7010008B7010008B7010008AF
:10015000B7010008B7010008B7010008B70100089F
:10016000B7010008B7010008B7010008B70100088F
:10017000B7010008B7010008B7010008000000003F
:10018000B7010008B7010008DFF80CD000F03CFB15
:1001900000480047B93C0008F805002006488047A1
:1001A00006480047FEE7FEE7FEE7FEE7FEE7FEE75C
:1001B000FEE7FEE7FEE7FEE7792E0008890100086A
:1001C0002DE9F05F0546002092469B46884606468C
:1001D000814640241BE0284641464746224600F01F
:1001E0002CFA53465A46C01A914110D3114618466C
:1001F000224600F013FA2D1A67EB01084F462246FB
:100200000120002100F00AFA17EB00094E41201EE0
:10021000A4F10104DFDC484631462A464346BDE8E6
:10022000F09FD2B201E000F8012B491EFBD27047CB
:100230000022F6E710B513460A4604461946FFF7B2
:10024000F0FF204610BD2DE9FE4F804681EA0300F5
:10025000C00F0C46009021F0004123F00045B8EBA0
:100260000200A94105D24046214690461C460B4655
:10027000024623F00040104347D0270DC7F30A0081
:10028000C3F30A510290401A019040286BDAC3F37D
:10029000130040F4801B0098924620B10023D2EB5B
:1002A000030A63EB0B0B01985946C0F1400250461C
:1002B00000F0B4F906460D4650465946019A00F042
:1002C000CCF910EB08006141002487EA115284EA5E
:1002D000E7731A4340D0009A62B3019A012A4FEAA9
:1002E000075215DC001B61EB02014FF0004202EAED
:1002F0000752CDE90042001C41F5801132462B46E1
:1003000000F003FA03B0BDE8F08F40462146F9E75C
:10031000001B61EB0201001C41F5801300185B41DA
:100320002018A2F5001747EB030140EAD570B61973
:100330006D4111E06D084FEA360645EAC0754FEA97
:100340000752001B61EB0201001C41F580114908B6
:100350004FEA30000019514132462B4603B0BDE848
:10036000F04F00F0C3B90098012240000023D0EB09
:10037000020263EBE073009821464FEAE074B8EBA9
:10038000000061EB0401E9E783F000435BE781F0E3
:10039000004158E72DE9FE4F81EA030404F00044D0
:1003A00021F0004100944FF0000B23F0004350EA8D
:1003B00001045ED052EA03045BD0C3F30A54C1F3D4
:1003C0000A552C44A4F2F3340194A0FB0254C1F367
:1003D000130141F48011C3F3130343F4801301FBB1
:1003E000024400FB034E840A970A44EA815447EA18
:1003F0008357A4FB076802958D0A05FB07854FEA22
:10040000932C04FB0C542705029D4FEA065847EA3B
:100410001637B5EB08056EEB070C870E920E47EA10
:10042000811742EA8312A7FB0201B6EB0B0164EBD2
:1004300000042B0D43EA0C335E1844EB1C50DA46E3
:100440005146E7FB0201C5F313044FEA0B3343EABD
:1004500014534FEA0432019C43EA0603A4F10C044E
:100460000294009CCDE900B400F04FF903B0BDE860
:10047000F08F00200146F9E72DE9F04D81EA0304F1
:1004800004F0004B21F0004514464FF0000A23F021
:10049000004150EA050220D054EA01021DD0C5F304
:1004A0000A570246C5F31303C1F31300C1F30A56FA
:1004B00040F4801543F48013A7EB0608101BD646C2
:1004C00008F2FD3873EB050002D308F1010801E0E2
:1004D00092185B41B8F1000F03DA00200146BDE835
:1004E000F08D00204FF48011064684460EE0171B65
:1004F00073EB050705D3121B63EB050306434CEAB8
:10050000010C49084FEA300092185B4150EA01079C
:10051000EDD152EA030012D082EA040083EA050119
:10052000084305D0101BAB4106D20122002306E090
:1005300000224FF0004302E06FF0010253101AEB6B
:1005400006004CEB085110EB0A0041EB0B01BDE833
:10055000F04D00F0CBB80EB5C10F80EAE070084452
:10056000CA07002140F233438DE80E000A460B46CD
:1005700000F0CBF803B000BD0EB540F2334102915C
:100580000021CDE900110A460B4600F0BEF803B089
:1005900000BD00F0004230F000400AD0C10D01F56E
:1005A0006071C0F3160042EA0151C20840071143CE
:1005B000704700200146704701F0004330B421F03D
:1005C000004150EA010206D00A0DA2F56072C1F3A3
:1005D0001301002A02DC30BC00207047440F44EABB
:1005E000C104C100E01830BC00EBC25000F047B8B5
:1005F00030B50B46014600202022012409E021FAF3
:1006000002F59D4205D303FA02F5491B04FA02F5EF
:100610002844151EA2F10102F1DC30BD202A04DBC2
:10062000203A00FA02F1002070479140C2F1200305
:1006300020FA03F3194390407047202A04DB203A44
:1006400021FA02F00021704721FA02F3D040C2F1F2
:1006500020029140084319467047202A06DBCB1739
:10066000203A41FA02F043EAE07306E041FA02F36D
:10067000D040C2F12002914008431946704700293A
:10068000A8BF7047401C490008BF20F00100704718
:1006900010B4B0FA80FC00FA0CF050EA010404BF78
:1006A00010BC704749B1CCF1200421FA04F411FACE
:1006B0000CF118BF012121430843A3EB0C01CB1D12
:1006C0004FEA00614FEA102042BF002010BC704783
:1006D00000EBC35010440029A4BF10BC7047401C5D
:1006E000490008BF20F0010010BC704710B5141E6F
:1006F00073F1000408DA401C41F1000192185B41DB
:100700001A4301D120F0010010BD2DE9F04D9246B1
:100710009B4611B1B1FA81F202E0B0FA80F22032C8
:100720009046FFF77BFF04460F4640EA0A0041EA85
:100730000B0153465A46084313D0114653EA0100B1
:1007400019D0C8F140025046FFF777FF05460E4624
:10075000504659464246FFF761FF084305D0012045
:1007600004E020463946BDE8F08D0020054346EA06
:10077000E0762C4337430A986305E40AA0EB0800AF
:100780000022FD0A44EA47540A3002D500200146FF
:10079000E9E7010510196941DDE9084500196941DA
:1007A000BDE8F04DA2E7C1F30A52C1F3130140F2D4
:1007B000FF3341F480119A4202DA0020014670476B
:1007C00040F233439A42A2F2334202DC5242FFF734
:1007D00034BFFFF723BF000030B5041E71F10004E1
:1007E00004DB4FF00044404264EB0101141E73F13E
:1007F000000405DB1C464FF00043524263EB040348
:10080000994208BF904230BD064C074D06E0E068B3
:1008100040F0010394E8070098471034AC42F6D347
:10082000FFF7B6FC2C3D00084C3D000810B5014612
:10083000806B026C12F0500F05D0026CD20626D5E8
:1008400000F0E7FA10BD016C41F400710164016829
:100850008A6812F0405F17D1027EAAB9CA6A12F400
:10086000700F02D08A6852050ED44A6822F0200226
:100870004A60016C21F480710164016CC90403D4E5
:10088000016C41F00101016400F05EFA10BD806B63
:10089000C26CBDE810400846104710B5806B40217F
:1008A0000164416C41F00401416400F0B2FA10BDF2
:1008B00010B5806B00F0ACFA10BD0000014800F0EC
:1008C000A9BA000064000020464910B54A6822F425
:1008D00040324A604A6843681A434A6001684A687D
:1008E00022F480724A6001684A68036942EA03227E
:1008F0004A6001684A6822F040724A6001684A68AA
:1009000083681A434A6001688A6822F400628A6038
:1009100001688A68C3681A438A60816A6FF07062EE
:10092000D14201688A6822F070628A6001688A6830
:100930000CD0836A1A438A6001688A6822F04052A8
:100940008A6001688A68C36A1A4301E022F0405253
:100950008A6001688A6822F002028A6001688A68F7
:10096000037E42EA43028A6090F820100029016861
:100970004A680FD042F400624A6001684A6822F473
:1009800060424A6001684A68174C436A04EB43338B
:100990001A4301E022F400624A600168CA6A22F444
:1009A0007002CA620168CA6A838B104C04EB03535D
:1009B0001A43CA6201688A6822F400728A60016878
:1009C0008A6890F8303042EA43228A6001688A6877
:1009D00022F480628A6001688A68406942EA802065
:1009E000886010BD0023014000E0FFFF0000F0FF21
:1009F0002DE9F04710EE101A2D4B012000252D4A4D
:100A000040F6C41446F2A819994202DA9FED2A0A68
:100A100005E010EE101A914201DD9FED280ADFED8E
:100A2000280A00224FEA020820EE200ABCEEC00A83
:100A300010EE10CA234E43460CFB00F18E1B78F1DA
:100A4000000604D3204F00267F1A9E4104D24000A6
:100A5000521C6D1C072AEDD30720B5FBF0F200FBFA
:100A60001255A1FB040208FB042201FB03214A46A4
:100A70000023FFF7A5FB22460023FFF7A1FBC003DD
:100A800040EAC20648F2010040EAC4040F4840EAC6
:100A900005550F4802F04EFC304602F04BFC204654
:100AA00002F048FC2846BDE8F04702F043BC0000D5
:100AB00000000C420080894500000C4200808945FE
:100AC00000007A445C912100E42343003C808C00C8
:100AD0001C80EC0010B50B4802F02CFC48F22900F9
:100AE00002F028FC084802F025FC40F2B34002F076
:100AF00021FC064802F01EFCBDE81040044802F04C
:100B000019BC000018802C00420E01003C80EC0053
:100B100005005800FEE70000014800F0CFBB0000D0
:100B2000AC00002001681823CAB2103AB2FBF3F2FD
:100B3000054B6FF30901032A9B5CC36500D9091DAE
:100B400081650846704700000C3D000810B501465D
:100B500000208B698A6A4FF0C07453B1B3F5005F0F
:100B600015D072B1012A0CD0022A0AD0032A09D169
:100B700004E01AB1012A06D0022A03D1C96AC901C8
:100B800000D5012010BDC96AA142FAD010BD002ACB
:100B9000F7D0012AF2D0022AF3D0032AF3D010BDF5
:100BA00030B50468256825F48025256004686360F5
:100BB0008368402B036803D099600068C26030BD31
:100BC0009A600068C16030BD704772B6FEE70000F1
:100BD00030EEC00ABCEEC00A10EE100A00EBC001F5
:100BE00001EB00104FF6FF7101EA800001494881D6
:100BF00070470000000000207047000078B5002416
:100C0000009490F83C20012A19D0012280F83C2061
:100C10000A6807230568092A13D9EE680A3A02EB25
:100C2000420293409E43EE600B788A680A3B03EBD6
:100C300043039A400368DD682A43DA6010E002202B
:100C400078BD2E6902EB420293409E432E610B78E1
:100C50008A6803EB43039A4003681D692A431A61BB
:100C60004A681F23072A13D205686E6B521E02EBD7
:100C7000820293409E436E630B790A885B1E92B298
:100C800003EB83039A4003685D6B2A435A6327E0B2
:100C900005680D2A12D22E6BD21F02EB82029340FE
:100CA0009E432E630B790A88DB1F92B203EB83030A
:100CB0009A4003681D6B2A431A6311E0EE6A0D3AED
:100CC00002EB820293409E43EE620B790A880D3B51
:100CD00092B203EB83039A400368DD6A2A43DA6227
:100CE000164B0568144A9D4206D10D68122D03D19A
:100CF000556845F48005556005689D4218D10B681C
:100D0000102B01D0112B13D1536843F4000353600F
:100D1000096810290CD10A490A4A0968B1FBF2F1A5
:100D200001EB8101490000E0491E00910029FBD13F
:100D300080F83C40002078BD0023014000200140A5
:100D40004800002040420F0038B52749884249D169
:100D5000084600F021FA25480088FFF70DFC9FEDBA
:100D6000241B53EC112BFFF715FB9FED231B53ECBA
:100D7000112BFFF70FFBFFF71FFC1C4B204A0C3B0E
:100D8000D97842F82100491CC8B2D870052829D367
:100D900092ED000A5FF0010002EB8001D1ED000A44
:100DA000F4EEC00AF1EE10FA01DDB0EE600A401C6C
:100DB0000528F1DB83ED070A9FED121A0020D87099
:100DC000C0EE010A9FED100A64230122694620EE5D
:100DD000800ABCEEC00A10EE100A8DF800000B4825
:100DE00001F0B6FD38BD0000640000200C000020BA
:100DF0006666666666660A40000000000000303FD6
:100E0000500000203333534000007F43AC010020EA
:100E10007047704770B5044600680668456816F06C
:100E2000020F05F020012AD049B3216CC90603D472
:100E3000216C41F400712164816811F0405F17D189
:100E4000217EA9B9C16A11F4700F02D081684905E9
:100E50000ED4416821F020014160206C20F48070A4
:100E60002064206CC00403D4206C40F00100206496
:100E70002046FFF769FF21686FF01200086016F046
:100E8000040F05F0800132D089B3206CC00603D472
:100E9000206C40F4005020642068816811F4401FE9
:100EA0001ED1816B11F4401F02D08168490517D40F
:100EB0004168490514D4816811F0405F10D1217E4A
:100EC00071B9416821F080014160206C20F48050AC
:100ED0002064206CC00503D4206C40F00100206425
:100EE0002046FFF789FE21686FF00C00086016F0BD
:100EF000010F05F040010FD071B120680068C007F4
:100F00000AD0206C40F480302064204600F043F882
:100F100021686FF00100086016F0200F05F0806175
:100F20000ED000290CD0606C40F002006064206894
:100F30006FF0200505602046FFF76BFF2068056015
:100F400070BD70B504004FF0000503D0206C002682
:100F500010B107E0012070BD204600F01DF8666466
:100F600084F83C60206CC00610D4206C20F48850BB
:100F700040F0020020642046FFF7A6FC6664206C67
:100F800020F0020040F00100206400E0012584F818
:100F90003C60284670BD704770B586B00646142187
:100FA0006846FFF745F92149306888423BD120481F
:100FB0000025016841F480710160006800F48070D0
:100FC00005901B481438016841F001010160006878
:100FD000694600F001000590012000900320CDE952
:100FE0000105144800F0EEFA144C1348C4E900055A
:100FF0000015A560C4E90350400060618000C4E9A9
:10100000060525622046656200F028FA08B1FFF760
:10101000DCFDB463022201211220A66300F040FC33
:10102000122000F02FFC06B070BD0000002001402F
:10103000443802400000024010640240AC0000202E
:10104000F8B50E4600210446009190F83C00134686
:101050000A46012807D0012084F83C0020688568F2
:10106000ED0702D011E00220F8BD856845F00105CA
:1010700085604048404D0068B0FBF5F000EB400053
:1010800000E0401E00900028FBD120688568ED0537
:1010900003D5856825F48075856020688568ED072F
:1010A0005DD0226C40F20165AA4342F48072226452
:1010B0004068400505D5206C20F4005040F4805075
:1010C0002064206CC00404D5606C20F006006064CD
:1010D00000E0616484F83C10A16B2948274DC86387
:1010E000A16B28480864A16B2748C86421686FF089
:1010F000220008602068416841F0806141602068FA
:10110000816841F480718160216832464C31A06B66
:1011100000F00EFA024668681C49C006206806D036
:10112000884224D1816811F0405F13D01FE08842CB
:10113000F8D0174B984203D1D1F80433DB06F1D035
:10114000144B984213D1D1F8041301F01F01102958
:10115000E8D30CE0816841F08041816007E0206CB9
:1011600040F010002064606C40F0010060641046A4
:10117000F8BD00004800002040420F00002301405D
:101180002D080008B10800089B0800080020014055
:10119000002101400022014010B50446002094F8CF
:1011A0003C1001290CD0012184F83C1021688A6888
:1011B00022F001028A6021688A68D20702D01DE00D
:1011C000022010BD8A6822F480728A60A16B91F8B7
:1011D0003520022A07D1084600F014F818B1216C16
:1011E00041F04001216421684A6822F080624A602F
:1011F000216C21F4885141F001012164002184F81F
:101200003C1010BD2DE9F0410446876D00F0D8FA7E
:10121000064694F835000025022806D08020606537
:1012200084F834500120BDE8F0812068016821F085
:10123000160101602068416921F080014161206C44
:1012400008B9A06C20B12068016821F00801016094
:101250002068016821F0010101600CE000F0B0FAA3
:10126000801B052807D920206065032084F83500FD
:1012700084F83450D7E720680068C007EED194F8AE
:101280005C103F208840B860012084F8350084F865
:1012900034500020C7E790F83510022903D0802190
:1012A000416501207047052180F83510006801680C
:1012B00021F0010101600020704700002DE9F84392
:1012C00004464FF00009CDF8009063484FF41651E2
:1012D000A56D0068B0FBF1F72E6894F85C1008204B
:1012E00000FA01F131420FD021680A6852070BD58C
:1012F0000A6822F004020A6094F85C108840A86032
:10130000606D40F00100606594F85C104FF00108DA
:1013100008FA01F0304208D021684969090604D56D
:10132000A860606D40F00200606594F85C100420D5
:101330008840304208D021680968890704D5A86030
:10134000606D40F00400606594F85C1010208840E7
:10135000304218D021680968090714D5A8602068B0
:101360000168490304D50068000308D5A16C07E0B3
:101370000168C90503D4016821F008010160216CEE
:1013800009B12046884794F85C10202088403042FC
:1013900031D021680968C9062DD5A86094F83500B8
:1013A00005282068016806D0490347D50068000376
:1013B0001DD4616C1CE021F01601016020684169B8
:1013C00021F080014161206C08B9A06C20B1206837
:1013D000016821F00801016094F85C103F2088400A
:1013E000A86084F8358084F83490216D1FE0E16BAB
:1013F00009B120468847606D00282BD0606DC0077A
:1014000014D0052084F835002068016821F001011E
:1014100001600098401C0090B84203D82068006822
:10142000C007F6D184F8358084F83490E16C002947
:1014300010D001B02046BDE8F04308470168C90557
:10144000D5D4016821F01001016084F8358084F85A
:101450003490CCE7BDE8F883480000202DE9F04146
:10146000044600F0ADF906465CB1022084F8350070
:10147000002584F834502068016821F001010160E2
:101480000DE00120BDE8F08100F09AF9801B0528ED
:1014900005D920206065032084F83500F2E7206834
:1014A0000068C007F0D12268116820480140D4E9E3
:1014B00001031843D4E903363343184363691843DF
:1014C000A3691843E3691843236A18430843616A10
:1014D000042903D1D4E90B13194308431060206891
:1014E0004069666A20F0070130460E430127042850
:1014F0000CD1A06A0643E06A40B12046FFF726FB04
:1015000020B14020606584F83570BAE720684661F4
:101510002046FFF707FB94F85C203F219140816053
:10152000656584F835700020ACE700003F8010F05E
:101530002DE9F0410446866D90F83400002501281D
:101540000DD0012084F8340094F835700020012F6C
:1015500007D084F8340002252846BDE8F081022037
:10156000FBE7022784F8357060652046FFF718FB1B
:1015700094F85C103F208840B0602068016841F01A
:1015800016010160206C20B12068016841F008015B
:1015900001602068016841F001010160DCE70000A2
:1015A00070B5044600F00CF90546601C02D00448F2
:1015B0000078044400F004F9401BA042FAD370BD47
:1015C0003C0000202DE9F84FDFF8BCA100220125E6
:1015D00003264FF00F090AF1040BAAF1040E00BF15
:1015E0000B6805FA02F42340A34270D10F7907F08B
:1015F0000307012F01D0022F16D187684FEA420856
:1016000006FA08FC27EA0C07D1F80CC00CFA08FC13
:101610004CEA070CC0F808C04768A7430C79C4F32C
:10162000001494403C4344600C79E443A4070AD07E
:10163000C4684FEA420C06FA0CF7BC438F6807FAFD
:101640000CF72743C7600C7904F00304022C12D175
:10165000D40800EB840CDCF820405707FF0E09FA91
:1016600007F824EA0804D1F8108008FA07F848EAD5
:101670000408CCF8208004684FEA420C06FA0CF704
:10168000BC430F7907F0030707FA0CF727430760FD
:101690004C6814F4403F70D03C4C276847F48047B6
:1016A0002760246822F0030704F480440094384C37
:1016B00007EB040CDCF8084897074FEA177809FA9B
:1016C00008F7BC43334FB84202D1002724E054E06E
:1016D000314FB84201D101271EE0304FB84201D14D
:1016E000022719E02E4FB84201D1032714E02D4FF5
:1016F000B84201D104270FE02B4FB84201D1052792
:101700000AE02A4FB84201D1062705E0284FB84227
:1017100001D1072700E0082707FA08F72743CCF88C
:101720000878DAF800405746D1F804C09C435FEAD5
:10173000CC2C00D51C433C60DBF800405F46D1F860
:1017400004C09C435FEA8C2C00D51C433C60DEF84F
:1017500000407746D1F804C09C435FEA8C3C00D53A
:101760001C433C60084F083F3C68D1F804C09C43D0
:101770005FEACC3C00D51C433C60521C102AFFF4AD
:101780002FAFBDE8F88F0000083C0140443802400C
:101790000030014000000240000402400008024006
:1017A000000C0240001002400014024000180240E9
:1017B000001C02400AB1816170470904FBE7000088
:1017C00001488068704700003C00002002488168A2
:1017D00002781144816070473C0000200B4810B52E
:1017E000016841F400710160016841F480610160A9
:1017F000016841F480710160032000F071F800205D
:1018000000F006F800F024F8002010BD003C024073
:1018100070B50D4D04464FF47A712878B1FBF0F0A5
:101820000A490968B1FBF0F000F053FC48B9102CEC
:1018300007D200222146501E00F032F800206C60D2
:1018400070BD012070BD00003C0000204800002059
:101850000B4882B0016841F480410160006800F4E7
:10186000804000900648001F016841F080510160EF
:10187000006800F080500090052002B000F030B801
:1018800044380240002809DB00F01F02012191408A
:101890004009800000F1E020C0F80011704700000E
:1018A000F0B40E4B1B680C46C3F30223C3F10705CB
:1018B000042D00D90425191D072901D2002300E0B9
:1018C000DB1E012606FA05F1491E214099409E4083
:1018D000761E16403143F0BC01F068BD0CED00E00F
:1018E000064900F0070208684FF6FF03184040EA77
:1018F0000220034A10430860704700000CED00E02E
:101900000000FA052DE9F0470E46050065D0DFF826
:101910001481D8F80000F7B200F00700B04207D2F7
:1019200088F80070D8F8000000F00700B04254D1E9
:1019300028683D4C810712D5400703D5206840F444
:10194000E05020602878000703D5206840F460400C
:1019500020602068A96820F0F00008432060287803
:10196000C0072DD0304968680839012812D00228F4
:1019700013D0032811D00968890700292DDA2168BE
:1019800021F0030101432160FFF71AFF814641F274
:10199000883A0EE009688903EFE709688901ECE7F6
:1019A000FFF70EFFA0EB0901514502D90320BDE866
:1019B000F0872068696800F00C00B0EB810FEFD170
:1019C000D8F80010404601F00701B14207D907706E
:1019D000006800F00700B04201D00120E7E7287856
:1019E000400705D52068E96820F4E05008432060EE
:1019F0002878000706D52068296920F4604040EA6D
:101A0000C100206000F038F82168084AC1F30311D2
:101A1000515CC8400649086006480068FFF7F8FEB8
:101A20000020C4E7003C024008380240143D000892
:101A3000480000204000002004480549006809686B
:101A4000044AC1F38221515CC8407047480000201D
:101A500008380240243D0008044805490068096828
:101A6000044AC1F34231515CC8407047480000202D
:101A700008380240243D0008154810B5006810F0F1
:101A80000C02144813D01449042A0FD0082A0ED18E
:101A90000F4C241F2268236802F03F025B0207D527
:101AA0002068C0F38810A0FB010106E0084610BDC5
:101AB0002168C1F38811A1FB00010023FEF780FB20
:101AC0002168C1F30141491C4900B0FBF1F010BD90
:101AD000083802400024F40040787D012DE9F84FD9
:101AE00004006ED02078DFF84C93C007A9F10405FC
:101AF0004AD009F104000168C1F38101012908D02D
:101B00000068C0F3810002280AD1D9F80000400221
:101B100006D52868800337D560680028E1D033E017
:101B20006068B0F5803F10D0B0F5A02F286810D0C5
:101B300020F480302860286820F4802028606068C5
:101B4000A8B1FFF73DFE06460DE0286840F480305E
:101B5000F4E740F480202860F7E700BFFFF730FE8D
:101B6000801B642873D828688003F7D50CE0FFF742
:101B700027FE064605E000BFFFF722FE801B642813
:101B8000F0D828688003F7D42078DFF8AC8280078B
:101B90004FF0000A3ED5A748001D016811F00C0F58
:101BA00008D00068C0F3810002280BD1D9F80000EA
:101BB000400207D42868800716D5E068012800D1C4
:101BC00012E033E1E068B8B10120C8F80000FFF787
:101BD000F7FD064605E000BFFFF7F2FD801B022877
:101BE000C0D828688007F7D52868216920F0F80058
:101BF00040EAC10028600DE0C8F800A0FFF7E0FD52
:101C0000064604E0FFF7DCFD801B02281FD8286889
:101C10008007F7D42078000722D5864F874861696E
:101C2000703771B101210160FFF7CAFD064604E07B
:101C3000FFF7C6FD801B022809D838688007F7D552
:101C40000EE0C0F800A0FFF7BBFD064605E082E00D
:101C5000FFF7B6FD801B02287DD838688007F7D4CF
:101C60002078400768D5DFF8CCB100270BF13C0B9A
:101C7000DBF80000C0000BD4DBF8001041F080510D
:101C8000CBF80010DBF80000012700F08050009036
:101C90006B4E3068C00510D4306840F480703060FE
:101CA000FFF78EFD009005E0FFF78AFD0099401ACE
:101CB000022850D83068C005F6D55E4EA0686C3654
:101CC00001280FD00528306810D020F001003060C6
:101CD000306820F004003060A068B8B1FFF770FDF4
:101CE00000900FE0306840F00100F4E740F004009D
:101CF0003060F7E7FFF764FD0099411A41F2883040
:101D0000814266D830688007F4D50EE0FFF758FDB1
:101D1000009007E0FFF754FD0099411A41F2883026
:101D2000814256D830688007F4D42FB1DBF8001018
:101D300021F08051CBF80010A069C8B33D49091DBE
:101D40000968C1F3810102294AD00228504607D010
:101D5000C8F8600000E03CE0FFF732FD04463BE0DD
:101D60004746C8F86000FFF72BFD064605E000BFB8
:101D7000FFF726FD801B02282BD828688001F7D4A6
:101D8000D4E907010843A16A2E4A490802EB014140
:101D9000626A41EA8211084394F82C1040EA01611A
:101DA000C9F8001001203866FFF70AFD044606E076
:101DB0003EE000BFFFF704FD001B022809D8286899
:101DC0008001F7D534E000BFFFF7FAFC001B0228C2
:101DD00002D90320BDE8F88F28688001F4D427E0F9
:101DE0000128F7D0D9F80000E26900F4800191429F
:101DF0001CD1226A00F03F01914217D147F6C07111
:101E0000626A0140B1EB821F10D1A26A4FF0FF332A
:101E100000F4403103EB5202B1EB024F06D194F8CB
:101E20002C1000F07060B0EB016F01D00120D1E701
:101E30000020CFE70438024000004742800E4742AE
:101E4000007000400000FFFF70B5040009D0606A18
:101E5000002540B125616561A56294F8510040B14B
:101E60000CE0012070BD6068B0F5827FF4D0E561C0
:101E7000F2E784F85050204600F044F8022084F83D
:101E800051002068016821F040010160A08821898B
:101E900000F4827001F404410843A18901F4006157
:101EA0000843217C01F002010843217D01F001017A
:101EB0000843218B01F400710843217F01F03801B0
:101EC000084394F8201001F080010843218D01F4AB
:101ED0000051084321680860A069042101EA10400C
:101EE00094F8241001F0100108432168486020682C
:101EF000C16921F40061C1616565012084F8510068
:101F0000002070BD10B586B0044614216846FEF767
:101F10008FF913492068884220D1124800210268B5
:101F200042F480520260006800F4805005900D4831
:101F30001438026842F001020260006800F00100FB
:101F40000590A02000900220CDE90101032003901C
:101F50000520049069460448FFF734FB06B010BD25
:101F60000030014044380240000002402DE9F84FA3
:101F7000984616468A460446FFF722FC814694F8A6
:101F8000510001281ED1BAF1000F73D0002E71D07C
:101F900094F85000012815D0012784F850700320D0
:101FA00084F8510000256565C4F830A0A686E68651
:101FB000A563A587E58765642564A068B0F5004F33
:101FC00003D00CE00220BDE8F88F2068016821F002
:101FD000400101602068016841F48041016020688F
:101FE0000168490603D4016841F040010160E068DE
:101FF000B0F5006F606803D048B3012E27D047E0EA
:1020000008B1012E1FD1206B21680088C86006E04E
:1020100020688168890709D5216B0988C160206B18
:10202000801C2063E08E401EE0860CE0FFF7C8FBBA
:10203000A0EB0901414503D3B8F1FF3F03D035E0E0
:10204000B8F1000F32D0E08E0028E1D123E0206B00
:1020500021680078087306E02068816889070AD53E
:10206000216B09780173206B401C2063E08E401EB9
:10207000E0860DE02BE0FFF7A3FBA0EB0901414553
:1020800003D3B8F1FF3F03D010E0B8F1000F0DD03B
:10209000E08E0028E0D14A464146204600F0A4FDEB
:1020A00008B120206065A06830B109E084F8517063
:1020B00084F85050032086E72068C168806800904B
:1020C00084F8517004F8505F60680028F3D0012054
:1020D00079E710B5401EB0F1807F01D3012010BD1B
:1020E0004FF0E02460610F21601701F05FF90020DC
:1020F000A06107202061002010BD704770470000DC
:1021000070B590F83C20012A32D0012480F83C4080
:10211000022280F83D2003685A689D6822F070060C
:102120000A6832435A60134B02689A4214D0B2F1E3
:10213000804F11D0104B9A420ED0104B9A420BD0C8
:102140000F4B9A4208D00F4B9A4205D00E4B9A4241
:1021500002D00E4B9A4204D1496825F080031943FE
:10216000916080F83D40002180F83C10084670BD29
:10217000022070BD00000140000400400008004043
:10218000000C0040000401400040014000180040E5
:1021900010B5040003D094F83D0010B107E0012011
:1021A00010BD002084F83C00204600F01FF80220FB
:1021B00084F83D00211D206800F06CFE012084F8A9
:1021C000460084F83E0084F83F0084F8400084F81C
:1021D000410084F8420084F8430084F8440084F805
:1021E000450084F83D00002010BD000008B50068DF
:1021F0000B49884212D10B48016841F0020101608D
:102200000068012200F00200009011461D20FFF737
:1022100047FBBDE808401D20FFF734BB08BD0000A8
:10222000000400404038024090F83D10012901D0E0
:1022300001207047022180F83D100168CA6842F011
:102240000102CA6000681149884214D0B0F1804F81
:1022500011D00F4988420ED00E4988420BD00E494A
:10226000884208D00D49884205D00D49884202D0E5
:102270000C49884204D1816801F00701062903D086
:10228000016841F001010160002070470000014039
:102290000004004000080040000C00400004014021
:1022A00000400140001800400168CA6822F00102A5
:1022B000CA6001680A6A41F211131A4207D10A6A18
:1022C0009B101A4203D10A6822F001020A60012120
:1022D00080F83D100020704770B5044690F83C002F
:1022E0000025012817D0012684F83C60022084F8DC
:1022F0003D002068826822F0770222F47F428260EB
:102300000868502838D00DDC20284FD005DC90B369
:10231000102811D14AE0022070BD302846D0402854
:102320000AD13BE060282FD070280DD0B0F5805F37
:1023300003D0B0F5005F12D0012584F83D60002085
:1023400084F83C00284670BDCB68D1E901212068A3
:1023500000F008FE2068816841F0770109E0CB6851
:10236000D1E90121206800F0FDFD2068816841F479
:1023700080418160E1E719E0CA684968206800F09F
:1023800003FE5021206806E0CA684968206800F012
:102390000CFE6021206800F0EFFDCEE7CA684968B6
:1023A000206800F0F1FD40212068F4E72268014632
:1023B0001046F0E770472DE9F04104460068C66812
:1023C00005694FF00007A90713D5B10711D5F91E0C
:1023D000016101202077206880698007204602D0B3
:1023E000FFF7E8FF04E000F07EF8204600F07CF8FC
:1023F0002777680716D5700714D521686FF0040099
:102400000861022020772068806910F4407F204610
:1024100002D0FFF7CFFF04E000F065F8204600F09F
:1024200063F82777280715D5300713D521686FF093
:1024300008000861042020772068C06980072046D2
:1024400002D0FFF7B7FF04E000F04DF8204600F09F
:102450004BF82777E80616D5F00614D521686FF0FB
:1024600010000861082020772068C06910F4407FC0
:10247000204602D0FFF79EFF04E000F034F820462B
:1024800000F032F82777E80708D0F00706D0216877
:102490006FF001000861204600F028F8280608D5F2
:1024A000300606D521686FF0800008612046FFF7EE
:1024B00024FE680608D5700606D521686FF0400036
:1024C0000861204600F05EF8A8060AD5B00608D5D7
:1024D00021686FF0200008612046BDE8F041FFF759
:1024E0000DBEBDE8F08170477047000010B520496F
:1024F0002DED028B88420ED11E4C2046217800899A
:1025000061B1002121706189884224D11848FFF708
:10251000CBFE00202081BDEC028B10BD012121707B
:10252000FEF72AF89FED141B53EC112BFDF732FF39
:1025300041EC180B2069FEF72CF853EC182BFDF733
:1025400082FEFEF739F8BDEC028B00EE100ABDE802
:102550001040FEF74DBA401C208106490122BDEC17
:10256000028B0C31BDE810400548FEF769BD000044
:1025700064010020000000207B14AE47E17A843F14
:10258000640000207047704770470000F8B501688C
:1025900004460868CA684B6910F00F0F4FF0000539
:1025A00059D003F0010602F49077374365D0C10794
:1025B00005D0D10503D5616C41F00101616441078B
:1025C00005D5D90703D0616C41F002016164810730
:1025D00005D5D90703D0616C41F00401616401079E
:1025E00007D502F02001314303D0616C41F00801AE
:1025F0006164616C00293AD0800604D5900602D54A
:10260000204600F012FD20684069616CC0F3801024
:10261000090700D460B3204600F0E0FC2068406960
:10262000400621D52068143050E8001F21F04001F9
:1026300040E80012002AF5D1E06BA8B172490165AB
:10264000E06BFEF728FE002811D0E06B016D01B0B1
:10265000BDE8F040084783060FD593060DD5204608
:10266000BDE8F84000F0E1BC2046FFF78DFFF8BD63
:102670002046FFF789FF6564F8BD266B2023012EF5
:102680007ED1C6067CD5D6067AD508684868009003
:1026900048694FF0020640064DD5E26B106840686D
:1026A0004FF480770004000C3AD0A18D814237D9D5
:1026B000E085D069B8422DD020680C3050E8001F6A
:1026C00021F4807140E80012002AF5D1206814300E
:1026D00050E8001F21F0010140E80012002AF5D166
:1026E0002068143050E8001F21F0400140E800123B
:1026F000002AF5D184F84230256320680C3050E878
:10270000001F21F0100140E80012002AF5D1E06B13
:10271000FEF778FD6663A08DE18D401A81B206E078
:10272000A18D8142A8D1D069B842A5D16663204667
:10273000FFF729FFF8BDA08DE18D401A81B2E08D31
:102740000028F7D00029F5D020680C3050E8002F81
:1027500022F4907240E80027002FF5D12068143051
:1027600050E8002F22F0010240E80027002FF5D1A9
:1027700084F84230256320680C3050E8002F00E0D8
:1027800006E022F0100240E80023002BF3D1CDE751
:1027900005062BD5150629D594F841002128C9D165
:1027A000A068B0F5805F01D12069B0B1206A411CFA
:1027B0002162216800784860E08C401E0004000C13
:1027C000E084B7D12068C16821F08001C160206831
:1027D000C16841F04001C160F8BD206A0088C0F3C3
:1027E00008004860206A801C2062E5E74006F3D5B7
:1027F0005006F1D5CA68204622F04002CA6084F82B
:10280000413000F0F5F8F8BDCF2F000870B5040096
:1028100004D094F84100002510B106E0012070BDFD
:1028200084F84050204600F023F8242084F841002A
:102830002068C16821F40051C160204600F056FCB8
:102840002068016921F4904101612068416921F00B
:102850002A0141612068C16841F40051C16065648A
:10286000202084F8410084F842006563002070BD98
:1028700010B586B0044614216846FDF7D9FC184906
:102880002068884229D117480021026842F01002CE
:102890000260006800F010000590124814380268C9
:1028A00042F001020260006800F0010005904FF460
:1028B000C06000900220CDE90101032003900720B1
:1028C000049069460848FEF77DFE0022012125207C
:1028D000FEF7E6FF2520FEF7D5FF06B010BD00008D
:1028E00000100140443802400000024090F842309D
:1028F000202B01D00220704721B11AB100230363BD
:1029000000F07ABC0120704770B50F49884219D198
:102910000E4CA1790A290DD0E07904F1200211545E
:10292000401CE071BDE8704008490122891D06483D
:10293000FFF7DCBF05480025E571203000F0B6FC4C
:102940006570EFE770BD0000AC01002000000020C2
:102950002DE9F843044690F84100984616460D4686
:10296000202802D00220BDE8F88385B17EB1002086
:102970006064212084F84100FEF722FFA68481468E
:10298000E684A0682027B0F5805F02D003E0012034
:10299000E9E7206910B12E4600250EE000260CE084
:1029A0008021204600F043FCA8B9C6B116F8010BFF
:1029B00021684860E08C401EE084E08C4B464FF07C
:1029C0000002CDF800800028EAD14FF040012046F7
:1029D00000F02DFC40B184F841700320C3E735F8C6
:1029E000020BC0F30800E3E784F841700020BAE767
:1029F0007047FEE77FB500241548009401940294C7
:102A00001249039401604FF48031C0E9011401259B
:102A10000461057680F820400E49C0E90A14C561BA
:102A2000C46080F830404561FEF78BFA08B1FEF7CC
:102A3000CCF8CDE90045694605480294FEF7DEF87A
:102A4000002801D0FEF7C1F87FBD00000020014042
:102A5000640000200100000F094808B5016841F436
:102A6000800101600068002200F48000009011469F
:102A70003820FEF715FFBDE808403820FEF702BFFA
:102A80003038024070B586B014216846FDF7D0FB9F
:102A900016480025016841F080010160016801F0DD
:102AA00080010591016841F001010160016801F0B8
:102AB00001010591016841F00801016000680C4EB8
:102AC00000F008004FF440440590002221463046B3
:102AD000FEF770FE0120CDE900400320CDE9025051
:102AE00069463046FEF76EFD06B070BD30380240D4
:102AF000000C0240114810B50F4901604FF482717B
:102B000041604FF4004181600021C1604FF40072C8
:102B10000161C0E905123822C0E9072141628162E2
:102B20000A21C162FFF790F9002803D0BDE81040E8
:102B3000FEF74BB810BD0000003001400C01002032
:102B400010B586B0002417480094019402940394B1
:102B5000049413490594016042F2CF01C0E90114C5
:102B60003121C0E9031480218161FFF711FB08B115
:102B7000FEF72BF84FF48050009069460948FFF7A4
:102B8000ABFB08B1FEF721F8049404A905480594AD
:102B9000FFF7B6FA002801D0FEF717F806B010BD0F
:102BA00000040040640100200C4810B50A4901608F
:102BB0004FF4E1314160002181600C22C160C0E925
:102BC00004128161C161FFF721FE002803D0BDE836
:102BD0001040FDF7FABF10BD00100140AC0100200D
:102BE000FEE7FEE770470000F8B515460E460B46B7
:102BF000009204460122022100F02CF8A0B91348EB
:102C000013490068B0FBF1F04FF47A71484300902B
:102C10006068B0F5827F0DD13346002280212046C6
:102C2000009500F017F870B1606D40F0200060650D
:102C30000320F8BD009830B1401E009020688068E5
:102C4000C0430006F6D50020F8BD00004800002073
:102C500000366E012DE9F8431E469146884604462B
:102C6000089DFEF7ADFD401B351AFEF7A9FD07468E
:102C700026480068C0F3CB3068430AE0701C09D0D6
:102C8000FEF79EFDC01BA8420FD275B10098B8B3E5
:102C9000401E00902068816838EA010033D000218E
:102CA0004945EBD10020BDE8F8832068416821F058
:102CB000E00141606068B0F5827F0BD1A068B0F59B
:102CC000004F02D0B0F5806F04D12068016821F078
:102CD00040010160A06AB0F5005F09D12068016879
:102CE00021F4005101602068016841F40051016045
:102CF000012084F85100002084F850000320D2E71E
:102D0000FFE70025C6E70121CAE7000048000020D0
:102D10007047000070B52F4802250146067903244C
:102D20008978012200232EB3012E31D0022E34D017
:102D3000032E37D04179B14200D0437041790171FF
:102D400079B3012937D002293FD0032932D1417804
:102D500000292FD142701F496423132228311E48B5
:102D6000FFF7F6FD6420FEF71BFCBDE870401B4832
:102D7000FFF75ABA012905D0022905D0032905D049
:102D80004371DBE74271D8E74571D6E74471D4E778
:102D900009B14271D2E74371CFE70029FBD04571F9
:102DA000CCE703E00029F6D04471C7E74178002959
:102DB00000D1427070BD41780029FBD1427090ED86
:102DC000060ABDE87040FDF713BE41780029F1D135
:102DD0004270CAE700000020AC010020640100201E
:102DE000FEF7F4BC30B593B030216846FDF720FA09
:102DF00014210CA8FDF71CFA1D480025016841F0BC
:102E000080510160006800F08050119019480168FD
:102E100041F4804101600068022400F48040119078
:102E20000120039010200490009406940820CDE91E
:102E30000750A820CDE9090404200B906846FEF74E
:102E40004DFE08B172B6FEE70CA90F2081E83100F3
:102E50004FF4A0500F904FF48050109005210CA813
:102E6000FEF750FD002801D072B6FEE713B030BD6A
:102E700040380240007000400248016841F470018F
:102E80000160704788ED00E00148FFF794BA000048
:102E900064010020F0B50268274B284D284E294FC9
:102EA000294C4FF0804C984209D0604507D0A84289
:102EB00005D0B04203D0B84201D0A04204D122F0E4
:102EC000700E4A6842EA0E0298421BD0604519D043
:102ED000A84217D0B04215D0B84213D0A04211D0AA
:102EE0001A4DA8420ED01A4DA8420BD0194DA84237
:102EF00008D0194DA84205D0184DA84202D0184D4F
:102F0000A84203D122F44075CA682A434D6922F0D1
:102F100080022A438D68C5620D688562984201D09F
:102F2000A04201D109690163016841F00401016017
:102F3000012141610260F0BD000001400004004039
:102F400000080040000C0040000401400040014027
:102F5000004401400048014000180040001C0040AF
:102F60000020004010B5846842EA032224F47F4424
:102F70000A432243826010BD826822F070020A4335
:102F800042F007018160704710B5036A046A24F0BB
:102F900001040462846924F0F00444EA021423F07A
:102FA0000A020A438461026210BD10B5036A046A12
:102FB00024F010040462846923F0A00324F4704414
:102FC00044EA023243EA01118261016210BD10B588
:102FD000806B0021C185FFF7D7FA10BD01680C3165
:102FE00051E8002F22F4907241E80023002BF5D124
:102FF0000168143151E8002F22F0010241E800235A
:10300000002BF5D1016B012909D101680C3151E880
:10301000002F22F0100241E80023002BF5D12021DF
:1030200080F8421000210163704708B590F8421003
:10303000222901D0022008BD82684FF480539A42B1
:1030400001D1016921B1816A9A421BD04AB10AE0DB
:103050000268816A5268C2F308020A80816A891C88
:1030600008E0026972B10268526802F07F020A70D9
:10307000816A491C8162C18D491E0904090CC18500
:1030800003D01BE002685268F1E70168CA6822F0C9
:103090002002CA600168CA6822F48072CA600168AE
:1030A0004A6922F001024A61202180F84210002181
:1030B0004163026B012A03D0FFF726FC002008BD04
:1030C000016301680C3151E8002F22F0100241E841
:1030D0000023002BF5D101680A68D20602D50A68E0
:1030E00049680091818DFFF74EFAE7E770B5044615
:1030F00000680169E26821F44051114301612169CE
:10310000A068E26908436169114308432168CA68FD
:1031100049F20C639A430243CA6020684169A2697C
:1031200021F440711143416131492068884202D045
:103130003049884202D1FEF78FFC01E0FEF77CFCAB
:10314000E2690023192164253226B2F5004F626836
:1031500028D0A0FB0101930F9200FDF731F8014642
:10316000B0FBF5F06FF01802504301EB800006EB66
:103170000010B0FBF5F000F0F002B1FBF5F002EB4F
:103180000012B1FBF5F06FF01803584301EB80001B
:1031900006EB0010B0FBF5F000F00F0021681044C2
:1031A000886070BDA0FB010192185B41FDF708F833
:1031B0000146B0FBF5F00201B1FBF5F06FF018032A
:1031C000584301EB800006EBC000B0FBF5F000F0C7
:1031D000F80002EB4002B1FBF5F0584301EB800030
:1031E00006EBC000B0FBF5F000F00700D6E70000EA
:1031F000001001400014014081628285C2850021D7
:103200004164222180F84210016921B10168CA6835
:1032100042F48072CA6001684A6942F001024A6160
:103220000068C16841F02001C160002070472DE9AD
:10323000F843984617460D460446089E24E0701C45
:1032400022D0FEF7BDFAA0EB0800B0421AD8CEB1EA
:103250002068C168490717D5802D15D0402D13D09F
:103260000168C94309070FD4016800254068009030
:103270002046FFF7B3FE0820606484F84050012028
:10328000BDE8F8830320FBE72068006835EA00000A
:1032900004D00020B842D2D00020F1E70120F9E7A5
:1032A0000148FFF773B90000AC01002010B50178A8
:1032B000462933D141781A4C46292CD044292DD1A6
:1032C00081780279303901EB4103C3EBC11102EB84
:1032D000C101C078642210FB02F200EB800002EB17
:1032E00040000844A0F5A050D038FDF734F99FED18
:1032F0000D1B53EC112BFDF7BFF8FDF75DF9A06135
:10330000FDF747F941EC100BBDE8104053EC102BD2
:1033100006A000F03BB880783038A07010BD0000E7
:103320000000002000000000000059402566000059
:10333000FEE7000038B5010E8DF80010010C8DF885
:103340000110010A8DF802108DF803000020FEF72D
:1033500027F90C4C012291032046FEF72BFA642337
:10336000042269460848FEF701FE0122D5032946DA
:103370002046FEF71FFA002229462046FEF71AFAD9
:1033800038BD0000000C02400C0100200FB4054BBA
:1033900010B503A9044A029800F0EAF810BC5DF8E1
:1033A00014FB0000A13C00084C0000200907090E96
:1033B000002804DB00F1E02080F80014704700F0E2
:1033C0000F0000F1E02080F8141D704702E008C8EB
:1033D000121F08C1002AFAD170477047002001E08F
:1033E00001C1121F002AFBD1704700002DE9FF5FC9
:1033F00082B00021DDE90430020DDDF840B0034366
:1034000018D044F61050A2F2FF324243151411981E
:1034100001281FD0A5EB0B00401C5FEA000A4FF00B
:1034200000064E4FDFF83891B046504615D5CAF128
:10343000000413E0119801244AA3012801D16FEA86
:103440000B010298119AC0E90031C0E9024206B0AE
:10345000BDE8F09FCBF10000DFE704460021404AC1
:10346000491842EB0450CDE9001012E0E00707D004
:1034700032463B4640464946FCF78CFF804689462B
:1034800032463B4610461946FCF784FF06460F4677
:103490006410002CEAD1DDE90401DDE90023BAF172
:1034A000000F06DAFCF776FF42464B46FCF772FF48
:1034B00005E0FCF7E1FF42464B46FCF7DDFF044622
:1034C0000E460022284BFDF787F903D84FF0FF3056
:1034D000014607E00022254B20463146FCF7B3FEAB
:1034E000FDF761F9102409E0002C0ADB0A22002311
:1034F000FCF766FE039B30321A55641E50EA010247
:10350000F2D1641C039AC4F111031444119A012AE4
:1035100003D0012208430DD10AE0084304D0002063
:103520004FF0110B119072E7A3EB0B056D1E0DE030
:103530005B4504DD4FF0000205F1010504E003DA0C
:103540004FF00002A5F10105002AECD00298119974
:10355000C0E90231C0E9004579E7000000001440ED
:103560000000F03F300000000000F0430000E03FAA
:103570002DE9FF4F95B09B468946064600250FE290
:10358000252877D100242746F84A0121059400E038
:10359000044316F8013F203B01FA03F01042F7D133
:1035A00030782A2811D06FF02F033078A0F1300244
:1035B000092A16D8059A44F0020402EB820203EBB2
:1035C00042021044761C0590EFE759F8042B05924F
:1035D000002A03DA504244F40054059044F00204F7
:1035E000761C30782E2816D116F8010F44F004040A
:1035F0002A280DD06FF02F023078A0F13003092B6C
:1036000009D807EB870302EB4303C718761CF3E7DF
:1036100059F8047B761C30786C280FD006DC4C28D7
:1036200017D068280DD06A2814D104E0742810D06F
:103630007A280FD10DE044F400140AE044F4801419
:1036400001E044F440147278824202D104F58014FF
:10365000761C761C307866280BD013DC582877D07F
:1036600009DC002875D04528F6D04628F4D0472834
:103670001AD19DE118E0632835D0642879D06528F7
:1036800012D195E1702873D008DC6728F1D0692841
:103690006FD06E280DD06F2806D1B5E073282CD0DE
:1036A000752875D0782874D05A46179990476D1CA4
:1036B00075E1C4F30250022809D003280DD0D9F8CF
:1036C000001004280DD00D6009F1040967E1D9F854
:1036D0000010EA17C1E90052F6E7D9F800100D8092
:1036E000F2E70D70F0E719F8041B8DF800100020C8
:1036F0008DF80100EA46012003E059F804AB4FF0D1
:10370000FF3061074FF0000102D40DE008F1010124
:103710008846B9420FDA8045F8DB1AF8081000290C
:10372000F4D108E008F1010188468142FADB1AF879
:1037300008100029F6D105985B46A0EB0807214642
:103740003846179A00F094FA284400EB080507E081
:103750004DE029E10DE01AF8010B5A461799904700
:10376000B8F10108F7D25B4621463846179A13E1B3
:1037700042E00A220092C4F302524FF0000A022AE9
:1037800008D059F804CB032A4FEAEC710AD00DE0B7
:1037900029E02AE009F1070121F00702F2E802C15D
:1037A000914609E00FFA8CFC4FEAEC71042A03D130
:1037B0004FFA8CFC4FEAEC71002907DA0A46002127
:1037C000DCF1000C61EB02012D2202E0220504D5A0
:1037D0002B228DF80420012203E0E20701D02022F1
:1037E000F7E7904659E00A2102E010220DE010218F
:1037F0004FF0000A00910BE010224FF0000A44F055
:1038000004040827009203E008224FF0000A009207
:10381000C4F30252022A05D059F804CB0021032A2E
:1038200008D009E009F1070121F00702F2E802C11E
:10383000914605E01FFA8CFC042A01D10CF0FF0C24
:103840004FF00008220728D5702806D0009B83F08F
:10385000100353EA0A0305D00EE040228DF804203D
:10386000012208E05CEA010206D030228DF8042033
:103870008DF8050002229046009B83F0080353EA6E
:103880000A030AD15CEA010201D1620705D53022A0
:103890008DF804204FF001087F1E582804D034A072
:1038A00003900EA802900DE036A0F9E7534660465B
:1038B000009AFCF785FC84460398825C0298401EBF
:1038C000029002705CEA0100F0D1029806A9081A81
:1038D00000F1200A600702D524F4803400E00127BB
:1038E000574502DDA7EB0A0000E0002000EB0A01CB
:1038F000009005984144401A0590E00306D45B46C9
:103900002146179A059800F0B3F90544002706E010
:1039100001A85A46C05D179990476D1C7F1C47450A
:10392000F6DBE0030CD55B462146179A059800F0BC
:103930009FF9054404E030205A46179990476D1CC2
:103940000099481E00900029F5DC08E002980299D1
:103950005A460078491C0291179990476D1CBAF19C
:103960000001AAF1010AF1DC65E10000092801006B
:1039700030313233343536373839616263646566E5
:1039800000000000303132333435363738394142A7
:10399000434445460000000000F058F90544761CF9
:1039A000307800287FF4ECAD19B02846BDE8F08FE0
:1039B000620700D4062709F1070222F0070CFCE891
:1039C0000223E14603F000485FEA080C02D00FF240
:1039D000702C0DE05FEA045C02D50FF2682C07E062
:1039E0005FEAC47C02D00FF2602C01E0AFF2700CF1
:1039F0004FF0FF3823F00043CDF850C065280CD0BD
:103A000006DC452809D046281DD047283DD13DE099
:103A1000662818D067287ED138E00021112F01DBFD
:103A2000112000E0781CCDE9000106A90EA8FFF7DF
:103A3000DDFCDDE90F010E9A03910021009207F1F0
:103A4000010A04914DE04FF000400097CDE90110CC
:103A500006A90EA8FFF7CAFCDDE90F0203920E9B30
:103A600011990022DDF80CA00093049211B9791C81
:103A700000EB010AB7EB0A0004D4C0F1FF3007F1F4
:103A8000010A0490AAEB0700019044E0012F00DA3C
:103A900001270021112F01DD112000E03846CDE97A
:103AA000000106A90EA8FFF7A1FCDDE90F010E9A9F
:103AB0000391002104910092BA4621070CD4039986
:103AC000514500DA8A46BAF1010F05DD009AAAF1E4
:103AD0000101515C302908D0B84202DA10F1040F1C
:103AE00006DA0121CDE9011015E0AAF10101E9E7AB
:103AF000002805DC049901440491AAEB000102E0CE
:103B0000411C514500DD8A460499401A401C019031
:103B10004FF000400290200704D40198504501DB8B
:103B2000CDF8048000208DF84F0002980DF14F076A
:103B3000B0F1004F25D02B200E9002984FF00208D4
:103B400000280CDA404202902D200E9007E00A2156
:103B50000298FCF74DFD3031029007F8011DB8F1D5
:103B60000001A8F10108F2DC02980028EFD1791ECB
:103B70000E980870307800F0200040F0450007F8FB
:103B8000020D12A8C01B00F107081498007800B1BC
:103B9000012000EB0A01019801EBE0710598414416
:103BA000401A401E0590E00306D45B462146179A52
:103BB000059800F05DF805441498007818B15A464D
:103BC000179990476D1CE00324D55B462146179A50
:103BD000059800F04DF805441CE00498002807DB28
:103BE000DDE90301884203DD0098405C179901E09C
:103BF000179930205A469047049805F10105401C5A
:103C000004900198401E019004D12E205A46179925
:103C100090476D1CBAF10001AAF1010ADDDC05E054
:103C200017F8010B5A46179990476D1CB8F100011F
:103C3000A8F10108F4DC5B462146179A0598ABE62B
:103C40002D0000002B000000200000002DE9F041B5
:103C5000044600251E461746880404D405E039466C
:103C60002020B0476D1C641EF9D52846BDE8F081C0
:103C70002DE9F041044600251E469046C80301D5B3
:103C8000302700E02027880404D505E04146384667
:103C9000B0476D1C641EF9D52846BDE8F0810000D0
:103CA00013B54FF6FF73012269460248FEF750FE36
:103CB00000981CBDAC010020FDF790FDFFF792F8C5
:103CC000FEF7E0FEFEF7C8FEFEF714FFFEF76CFFFE
:103CD000FEF736FFFEF78EFE0A48D0ED050A90ED9E
:103CE000040AFCF775FFFCF7F5FE06490122891D61
:103CF0000548FEF7FBFD6420FDF752FCFFF70AF8CC
:103D0000F9E7000000000020AC01002000061016BA
:103D1000000610160000000000000000010203046D
:103D20000607080900000000010203044C3D0008DA
:103D30000000002050000000CC3300089C3D00082B
:103D400050000020A8050000DC330008000000003F
:103D50000000000000000000000000000000A04281
:103D60000000C84200000000000000000000000049
:103D700000000000616464742073302E69642C308C
:103D80002C323030FFFFFF00010000001000000067
:0C3D9000000000000024F400000000000F
:040000050800018965
:00000001FF
